{
  "_format": "hh-sol-artifact-1",
  "contractName": "TreasureHunt",
  "sourceName": "contracts/TreasureHunt.sol",
  "abi": [
    {
      "inputs": [],
      "stateMutability": "nonpayable",
      "type": "constructor"
    },
    {
      "anonymous": false,
      "inputs": [
        {
          "indexed": false,
          "internalType": "address",
          "name": "winner",
          "type": "address"
        },
        {
          "indexed": false,
          "internalType": "uint256",
          "name": "reward",
          "type": "uint256"
        }
      ],
      "name": "GameWon",
      "type": "event"
    },
    {
      "anonymous": false,
      "inputs": [
        {
          "indexed": false,
          "internalType": "address",
          "name": "player",
          "type": "address"
        },
        {
          "indexed": false,
          "internalType": "uint256",
          "name": "direction",
          "type": "uint256"
        }
      ],
      "name": "InvalidMove",
      "type": "event"
    },
    {
      "anonymous": false,
      "inputs": [
        {
          "indexed": false,
          "internalType": "address",
          "name": "player",
          "type": "address"
        }
      ],
      "name": "NextTurn",
      "type": "event"
    },
    {
      "anonymous": false,
      "inputs": [
        {
          "indexed": false,
          "internalType": "address",
          "name": "player",
          "type": "address"
        },
        {
          "indexed": false,
          "internalType": "uint256",
          "name": "position",
          "type": "uint256"
        }
      ],
      "name": "PlayerJoined",
      "type": "event"
    },
    {
      "anonymous": false,
      "inputs": [
        {
          "indexed": false,
          "internalType": "address",
          "name": "player",
          "type": "address"
        },
        {
          "indexed": false,
          "internalType": "uint256",
          "name": "fromPosition",
          "type": "uint256"
        },
        {
          "indexed": false,
          "internalType": "uint256",
          "name": "toPosition",
          "type": "uint256"
        },
        {
          "indexed": false,
          "internalType": "uint256",
          "name": "direction",
          "type": "uint256"
        }
      ],
      "name": "PlayerMoved",
      "type": "event"
    },
    {
      "anonymous": false,
      "inputs": [
        {
          "indexed": false,
          "internalType": "uint256",
          "name": "fromPosition",
          "type": "uint256"
        },
        {
          "indexed": false,
          "internalType": "uint256",
          "name": "toPosition",
          "type": "uint256"
        }
      ],
      "name": "TreasureMoved",
      "type": "event"
    },
    {
      "inputs": [
        {
          "internalType": "address",
          "name": "",
          "type": "address"
        }
      ],
      "name": "activePlayers",
      "outputs": [
        {
          "internalType": "bool",
          "name": "",
          "type": "bool"
        }
      ],
      "stateMutability": "view",
      "type": "function"
    },
    {
      "inputs": [],
      "name": "currentPlayerIndex",
      "outputs": [
        {
          "internalType": "uint256",
          "name": "",
          "type": "uint256"
        }
      ],
      "stateMutability": "view",
      "type": "function"
    },
    {
      "inputs": [],
      "name": "gameActive",
      "outputs": [
        {
          "internalType": "bool",
          "name": "",
          "type": "bool"
        }
      ],
      "stateMutability": "view",
      "type": "function"
    },
    {
      "inputs": [],
      "name": "gameRound",
      "outputs": [
        {
          "internalType": "uint256",
          "name": "",
          "type": "uint256"
        }
      ],
      "stateMutability": "view",
      "type": "function"
    },
    {
      "inputs": [
        {
          "internalType": "address",
          "name": "player",
          "type": "address"
        }
      ],
      "name": "getPlayerPosition",
      "outputs": [
        {
          "internalType": "uint256",
          "name": "",
          "type": "uint256"
        }
      ],
      "stateMutability": "view",
      "type": "function"
    },
    {
      "inputs": [],
      "name": "joinGame",
      "outputs": [],
      "stateMutability": "payable",
      "type": "function"
    },
    {
      "inputs": [
        {
          "internalType": "uint256",
          "name": "direction",
          "type": "uint256"
        }
      ],
      "name": "move",
      "outputs": [],
      "stateMutability": "nonpayable",
      "type": "function"
    },
    {
      "inputs": [],
      "name": "owner",
      "outputs": [
        {
          "internalType": "address",
          "name": "",
          "type": "address"
        }
      ],
      "stateMutability": "view",
      "type": "function"
    },
    {
      "inputs": [
        {
          "internalType": "uint256",
          "name": "",
          "type": "uint256"
        }
      ],
      "name": "playerOrder",
      "outputs": [
        {
          "internalType": "address",
          "name": "",
          "type": "address"
        }
      ],
      "stateMutability": "view",
      "type": "function"
    },
    {
      "inputs": [
        {
          "internalType": "address",
          "name": "",
          "type": "address"
        }
      ],
      "name": "playerPositions",
      "outputs": [
        {
          "internalType": "uint256",
          "name": "",
          "type": "uint256"
        }
      ],
      "stateMutability": "view",
      "type": "function"
    },
    {
      "inputs": [
        {
          "internalType": "address",
          "name": "player",
          "type": "address"
        },
        {
          "internalType": "uint256",
          "name": "position",
          "type": "uint256"
        }
      ],
      "name": "setPlayerPosition",
      "outputs": [],
      "stateMutability": "nonpayable",
      "type": "function"
    },
    {
      "inputs": [
        {
          "internalType": "uint256",
          "name": "position",
          "type": "uint256"
        }
      ],
      "name": "setTreasurePosition",
      "outputs": [],
      "stateMutability": "nonpayable",
      "type": "function"
    },
    {
      "inputs": [],
      "name": "startNewGame",
      "outputs": [],
      "stateMutability": "nonpayable",
      "type": "function"
    },
    {
      "inputs": [],
      "name": "totalPlayers",
      "outputs": [
        {
          "internalType": "uint256",
          "name": "",
          "type": "uint256"
        }
      ],
      "stateMutability": "view",
      "type": "function"
    },
    {
      "inputs": [],
      "name": "treasurePosition",
      "outputs": [
        {
          "internalType": "uint256",
          "name": "",
          "type": "uint256"
        }
      ],
      "stateMutability": "view",
      "type": "function"
    },
    {
      "inputs": [],
      "name": "withdrawFees",
      "outputs": [],
      "stateMutability": "nonpayable",
      "type": "function"
    }
  ],
  "bytecode": "0x60806040523480156200001157600080fd5b50336000806101000a81548173ffffffffffffffffffffffffffffffffffffffff021916908373ffffffffffffffffffffffffffffffffffffffff16021790555060016007819055506200006a6200007060201b60201c565b620001ef565b606443426040516020016200008792919062000144565b6040516020818303038152906040528051906020012060001c620000ac919062000188565b6001819055506001600860006101000a81548160ff021916908315150217905550600060058190555060046000620000e59190620000e7565b565b50805460008255906000526020600020908101906200010791906200010a565b50565b5b80821115620001255760008160009055506001016200010b565b5090565b6200013e620001388262000174565b6200017e565b82525050565b600062000152828562000129565b60208201915062000164828462000129565b6020820191508190509392505050565b6000819050919050565b6000819050919050565b6000620001958262000174565b9150620001a28362000174565b925082620001b557620001b4620001c0565b5b828206905092915050565b7f4e487b7100000000000000000000000000000000000000000000000000000000600052601260045260246000fd5b6122f480620001ff6000396000f3fe6080604052600436106100f35760003560e01c8063acfbbe251161008a578063d4f77b1c11610059578063d4f77b1c14610316578063f020044f14610320578063f60cdcf61461034b578063fb9bdab414610376576100f3565b8063acfbbe2514610236578063afcb20f11461025f578063c4df179b1461029c578063cf83a41d146102d9576100f3565b806387cb15f7116100c657806387cb15f71461018c5780638da5cb5b146101b55780639de8537e146101e0578063a5f9b5c21461020b576100f3565b80633dd3fc38146100f85780633f83181014610121578063476343ee1461015e578063482d51e014610175575b600080fd5b34801561010457600080fd5b5061011f600480360381019061011a91906118b1565b6103a1565b005b34801561012d57600080fd5b506101486004803603810190610143919061184c565b61047c565b6040516101559190611f94565b60405180910390f35b34801561016a57600080fd5b50610173610551565b005b34801561018157600080fd5b5061018a61069e565b005b34801561019857600080fd5b506101b360048036038101906101ae91906118b1565b610786565b005b3480156101c157600080fd5b506101ca610b2e565b6040516101d79190611d50565b60405180910390f35b3480156101ec57600080fd5b506101f5610b52565b6040516102029190611f94565b60405180910390f35b34801561021757600080fd5b50610220610b58565b60405161022d9190611f94565b60405180910390f35b34801561024257600080fd5b5061025d60048036038101906102589190611875565b610b5e565b005b34801561026b57600080fd5b506102866004803603810190610281919061184c565b610d03565b6040516102939190611f94565b60405180910390f35b3480156102a857600080fd5b506102c360048036038101906102be919061184c565b610d1b565b6040516102d09190611dd9565b60405180910390f35b3480156102e557600080fd5b5061030060048036038101906102fb91906118b1565b610d3b565b60405161030d9190611d50565b60405180910390f35b61031e610d7a565b005b34801561032c57600080fd5b50610335611052565b6040516103429190611dd9565b60405180910390f35b34801561035757600080fd5b50610360611065565b60405161036d9190611f94565b60405180910390f35b34801561038257600080fd5b5061038b61106b565b6040516103989190611f94565b60405180910390f35b60008054906101000a900473ffffffffffffffffffffffffffffffffffffffff1673ffffffffffffffffffffffffffffffffffffffff163373ffffffffffffffffffffffffffffffffffffffff161461042f576040517f08c379a000000000000000000000000000000000000000000000000000000000815260040161042690611f14565b60405180910390fd5b60648110610472576040517f08c379a000000000000000000000000000000000000000000000000000000000815260040161046990611ed4565b60405180910390fd5b8060018190555050565b6000600360008373ffffffffffffffffffffffffffffffffffffffff1673ffffffffffffffffffffffffffffffffffffffff16815260200190815260200160002060009054906101000a900460ff1661050a576040517f08c379a000000000000000000000000000000000000000000000000000000000815260040161050190611ef4565b60405180910390fd5b600260008373ffffffffffffffffffffffffffffffffffffffff1673ffffffffffffffffffffffffffffffffffffffff168152602001908152602001600020549050919050565b60008054906101000a900473ffffffffffffffffffffffffffffffffffffffff1673ffffffffffffffffffffffffffffffffffffffff163373ffffffffffffffffffffffffffffffffffffffff16146105df576040517f08c379a00000000000000000000000000000000000000000000000000000000081526004016105d690611e14565b60405180910390fd5b600860009054906101000a900460ff161561062f576040517f08c379a000000000000000000000000000000000000000000000000000000000815260040161062690611eb4565b60405180910390fd5b600047905060008054906101000a900473ffffffffffffffffffffffffffffffffffffffff1673ffffffffffffffffffffffffffffffffffffffff166108fc829081150290604051600060405180830381858888f1935050505015801561069a573d6000803e3d6000fd5b5050565b60008054906101000a900473ffffffffffffffffffffffffffffffffffffffff1673ffffffffffffffffffffffffffffffffffffffff163373ffffffffffffffffffffffffffffffffffffffff161461072c576040517f08c379a000000000000000000000000000000000000000000000000000000000815260040161072390611f54565b60405180910390fd5b600860009054906101000a900460ff161561077c576040517f08c379a000000000000000000000000000000000000000000000000000000000815260040161077390611df4565b60405180910390fd5b610784611071565b565b600360003373ffffffffffffffffffffffffffffffffffffffff1673ffffffffffffffffffffffffffffffffffffffff16815260200190815260200160002060009054906101000a900460ff16610812576040517f08c379a000000000000000000000000000000000000000000000000000000000815260040161080990611f34565b60405180910390fd5b3373ffffffffffffffffffffffffffffffffffffffff16600460055481548110610865577f4e487b7100000000000000000000000000000000000000000000000000000000600052603260045260246000fd5b9060005260206000200160009054906101000a900473ffffffffffffffffffffffffffffffffffffffff1673ffffffffffffffffffffffffffffffffffffffff16146108e6576040517f08c379a00000000000000000000000000000000000000000000000000000000081526004016108dd90611e94565b60405180910390fd5b60048110610929576040517f08c379a000000000000000000000000000000000000000000000000000000000815260040161092090611e54565b60405180910390fd5b6000600260003373ffffffffffffffffffffffffffffffffffffffff1673ffffffffffffffffffffffffffffffffffffffff168152602001908152602001600020549050600061097982846110e2565b9050818114156109c1577fa5532de0a1b946977a14a32b95b845e5f61f4095c152cb0564d456baf51929e833846040516109b4929190611d6b565b60405180910390a1610b28565b80600260003373ffffffffffffffffffffffffffffffffffffffff1673ffffffffffffffffffffffffffffffffffffffff168152602001908152602001600020819055507f3f403db52377649f2701976bb76f80d65ffca2a457d4e165dfe16568020af51f33838386604051610a3a9493929190611d94565b60405180910390a1610a4b816111c4565b600154811415610a6557610a5e3361128d565b5050610b2b565b6004805490506001600554610a7a9190611fe9565b610a8491906121f4565b6005819055507f7991dbd0ee13b14ebcaae2e8f3d637a593e2b6f66783a8f1ceda50db08dcff76600460055481548110610ae7577f4e487b7100000000000000000000000000000000000000000000000000000000600052603260045260246000fd5b9060005260206000200160009054906101000a900473ffffffffffffffffffffffffffffffffffffffff16604051610b1f9190611d50565b60405180910390a15b50505b50565b60008054906101000a900473ffffffffffffffffffffffffffffffffffffffff1681565b60015481565b60075481565b60008054906101000a900473ffffffffffffffffffffffffffffffffffffffff1673ffffffffffffffffffffffffffffffffffffffff163373ffffffffffffffffffffffffffffffffffffffff1614610bec576040517f08c379a0000000000000000000000000000000000000000000000000000000008152600401610be390611f74565b60405180910390fd5b60648110610c2f576040517f08c379a0000000000000000000000000000000000000000000000000000000008152600401610c2690611ed4565b60405180910390fd5b600360008373ffffffffffffffffffffffffffffffffffffffff1673ffffffffffffffffffffffffffffffffffffffff16815260200190815260200160002060009054906101000a900460ff16610cbb576040517f08c379a0000000000000000000000000000000000000000000000000000000008152600401610cb290611ef4565b60405180910390fd5b80600260008473ffffffffffffffffffffffffffffffffffffffff1673ffffffffffffffffffffffffffffffffffffffff168152602001908152602001600020819055505050565b60026020528060005260406000206000915090505481565b60036020528060005260406000206000915054906101000a900460ff1681565b60048181548110610d4b57600080fd5b906000526020600020016000915054906101000a900473ffffffffffffffffffffffffffffffffffffffff1681565b662386f26fc10000341015610dc4576040517f08c379a0000000000000000000000000000000000000000000000000000000008152600401610dbb90611e74565b60405180910390fd5b600360003373ffffffffffffffffffffffffffffffffffffffff1673ffffffffffffffffffffffffffffffffffffffff16815260200190815260200160002060009054906101000a900460ff1615610e51576040517f08c379a0000000000000000000000000000000000000000000000000000000008152600401610e4890611e34565b60405180910390fd5b6000600654148015610e705750600860009054906101000a900460ff16155b15610e7e57610e7d611071565b5b60006064334342604051602001610e9793929190611ce7565b6040516020818303038152906040528051906020012060001c610eba91906121f4565b905080600260003373ffffffffffffffffffffffffffffffffffffffff1673ffffffffffffffffffffffffffffffffffffffff168152602001908152602001600020819055506001600360003373ffffffffffffffffffffffffffffffffffffffff1673ffffffffffffffffffffffffffffffffffffffff16815260200190815260200160002060006101000a81548160ff0219169083151502179055506004339080600181540180825580915050600190039060005260206000200160009091909190916101000a81548173ffffffffffffffffffffffffffffffffffffffff021916908373ffffffffffffffffffffffffffffffffffffffff16021790555060066000815480929190610fce90612153565b91905055507f3330a6773675f31f62070870f40379f8c6d42e3761410011a4dfc42b18043d2f3382604051611004929190611d6b565b60405180910390a16001600654141561104f577f7991dbd0ee13b14ebcaae2e8f3d637a593e2b6f66783a8f1ceda50db08dcff76336040516110469190611d50565b60405180910390a15b50565b600860009054906101000a900460ff1681565b60065481565b60055481565b60644342604051602001611086929190611d24565b6040516020818303038152906040528051906020012060001c6110a991906121f4565b6001819055506001600860006101000a81548160ff0219169083151502179055506000600581905550600460006110e091906117e4565b565b600080821480156110f45750600a8310155b1561110d57600a8361110691906120ca565b90506111be565b6001821480156111295750600a606461112691906120ca565b83105b1561114257600a8361113b9190611fe9565b90506111be565b60028214801561115f57506000600a8461115c91906121f4565b14155b156111785760018361117191906120ca565b90506111be565b6003821480156111a157506001600a61119191906120ca565b600a8461119e91906121f4565b14155b156111ba576001836111b39190611fe9565b90506111be565b8290505b92915050565b6000600154905060006005836111da91906121f4565b14156111f6576111eb600154611497565b600181905550611244565b6111ff8261177c565b156112435760644342604051602001611219929190611d24565b6040516020818303038152906040528051906020012060001c61123c91906121f4565b6001819055505b5b6001548114611289577f95ba55fe157eaf8016491219139199493de3f5248e5de8de3c96a726ce08609a81600154604051611280929190611faf565b60405180910390a15b5050565b60006064605a4761129e9190612070565b6112a8919061203f565b90508173ffffffffffffffffffffffffffffffffffffffff166108fc829081150290604051600060405180830381858888f193505050501580156112f0573d6000803e3d6000fd5b507fdae072d96ce4f8bfc6557d4e8c29e0d1875b50c4efe52b340ab49669ec42ebe68282604051611322929190611d6b565b60405180910390a160005b60048054905081101561144957600060048281548110611376577f4e487b7100000000000000000000000000000000000000000000000000000000600052603260045260246000fd5b9060005260206000200160009054906101000a900473ffffffffffffffffffffffffffffffffffffffff169050600260008273ffffffffffffffffffffffffffffffffffffffff1673ffffffffffffffffffffffffffffffffffffffff16815260200190815260200160002060009055600360008273ffffffffffffffffffffffffffffffffffffffff1673ffffffffffffffffffffffffffffffffffffffff16815260200190815260200160002060006101000a81549060ff021916905550808061144190612153565b91505061132d565b506004600061145891906117e4565b60006006819055506000600860006101000a81548160ff0219169083151502179055506007600081548092919061148e90612153565b91905055505050565b600080600443426040516020016114af929190611d24565b6040516020818303038152906040528051906020012060001c6114d291906121f4565b90506000600467ffffffffffffffff811115611517577f4e487b7100000000000000000000000000000000000000000000000000000000600052604160045260246000fd5b6040519080825280602002602001820160405280156115455781602001602082028036833780820191505090505b5090506000600a85106115b457600a8561155f91906120ca565b82828061156b9061219c565b935060ff16815181106115a7577f4e487b7100000000000000000000000000000000000000000000000000000000600052603260045260246000fd5b6020026020010181815250505b600a60646115c291906120ca565b85101561162b57600a856115d69190611fe9565b8282806115e29061219c565b935060ff168151811061161e577f4e487b7100000000000000000000000000000000000000000000000000000000600052603260045260246000fd5b6020026020010181815250505b6000600a8661163a91906121f4565b146116a15760018561164c91906120ca565b8282806116589061219c565b935060ff1681518110611694577f4e487b7100000000000000000000000000000000000000000000000000000000600052603260045260246000fd5b6020026020010181815250505b6001600a6116af91906120ca565b600a866116bc91906121f4565b14611723576001856116ce9190611fe9565b8282806116da9061219c565b935060ff1681518110611716577f4e487b7100000000000000000000000000000000000000000000000000000000600052603260045260246000fd5b6020026020010181815250505b818160ff168461173391906121f4565b8151811061176a577f4e487b7100000000000000000000000000000000000000000000000000000000600052603260045260246000fd5b60200260200101519350505050919050565b60006001821161178f57600090506117df565b6000600290505b8281826117a39190612070565b116117d957600081846117b691906121f4565b14156117c65760009150506117df565b80806117d190612153565b915050611796565b50600190505b919050565b50805460008255906000526020600020908101906118029190611805565b50565b5b8082111561181e576000816000905550600101611806565b5090565b60008135905061183181612290565b92915050565b600081359050611846816122a7565b92915050565b60006020828403121561185e57600080fd5b600061186c84828501611822565b91505092915050565b6000806040838503121561188857600080fd5b600061189685828601611822565b92505060206118a785828601611837565b9150509250929050565b6000602082840312156118c357600080fd5b60006118d184828501611837565b91505092915050565b6118e3816120fe565b82525050565b6118fa6118f5826120fe565b6121c6565b82525050565b61190981612110565b82525050565b600061191c601d83611fd8565b91507f412067616d6520697320616c726561647920696e2070726f67726573730000006000830152602082019050919050565b600061195c601c83611fd8565b91507f4f6e6c79206f776e65722063616e2077697468647261772066656573000000006000830152602082019050919050565b600061199c600e83611fd8565b91507f416c7265616479206a6f696e65640000000000000000000000000000000000006000830152602082019050919050565b60006119dc601183611fd8565b91507f496e76616c696420646972656374696f6e0000000000000000000000000000006000830152602082019050919050565b6000611a1c601783611fd8565b91507f496e73756666696369656e742062657420616d6f756e740000000000000000006000830152602082019050919050565b6000611a5c600d83611fd8565b91507f4e6f7420796f7572207475726e000000000000000000000000000000000000006000830152602082019050919050565b6000611a9c602983611fd8565b91507f43616e6e6f742077697468647261772066656573207768696c652067616d652060008301527f69732061637469766500000000000000000000000000000000000000000000006020830152604082019050919050565b6000611b02601683611fd8565b91507f506f736974696f6e206f7574206f6620626f756e6473000000000000000000006000830152602082019050919050565b6000611b42601183611fd8565b91507f506c61796572206e6f74206163746976650000000000000000000000000000006000830152602082019050919050565b6000611b82602c83611fd8565b91507f4f6e6c7920746865206f776e65722063616e207365742074686520747265617360008301527f75726520706f736974696f6e00000000000000000000000000000000000000006020830152604082019050919050565b6000611be8601483611fd8565b91507f4e6f7420616e2061637469766520706c617965720000000000000000000000006000830152602082019050919050565b6000611c28601f83611fd8565b91507f4f6e6c79206f776e65722063616e2073746172742061206e65772067616d65006000830152602082019050919050565b6000611c68602783611fd8565b91507f4f6e6c7920746865206f776e65722063616e2073657420706c6179657220706f60008301527f736974696f6e73000000000000000000000000000000000000000000000000006020830152604082019050919050565b611cca8161213c565b82525050565b611ce1611cdc8261213c565b6121ea565b82525050565b6000611cf382866118e9565b601482019150611d038285611cd0565b602082019150611d138284611cd0565b602082019150819050949350505050565b6000611d308285611cd0565b602082019150611d408284611cd0565b6020820191508190509392505050565b6000602082019050611d6560008301846118da565b92915050565b6000604082019050611d8060008301856118da565b611d8d6020830184611cc1565b9392505050565b6000608082019050611da960008301876118da565b611db66020830186611cc1565b611dc36040830185611cc1565b611dd06060830184611cc1565b95945050505050565b6000602082019050611dee6000830184611900565b92915050565b60006020820190508181036000830152611e0d8161190f565b9050919050565b60006020820190508181036000830152611e2d8161194f565b9050919050565b60006020820190508181036000830152611e4d8161198f565b9050919050565b60006020820190508181036000830152611e6d816119cf565b9050919050565b60006020820190508181036000830152611e8d81611a0f565b9050919050565b60006020820190508181036000830152611ead81611a4f565b9050919050565b60006020820190508181036000830152611ecd81611a8f565b9050919050565b60006020820190508181036000830152611eed81611af5565b9050919050565b60006020820190508181036000830152611f0d81611b35565b9050919050565b60006020820190508181036000830152611f2d81611b75565b9050919050565b60006020820190508181036000830152611f4d81611bdb565b9050919050565b60006020820190508181036000830152611f6d81611c1b565b9050919050565b60006020820190508181036000830152611f8d81611c5b565b9050919050565b6000602082019050611fa96000830184611cc1565b92915050565b6000604082019050611fc46000830185611cc1565b611fd16020830184611cc1565b9392505050565b600082825260208201905092915050565b6000611ff48261213c565b9150611fff8361213c565b9250827fffffffffffffffffffffffffffffffffffffffffffffffffffffffffffffffff0382111561203457612033612225565b5b828201905092915050565b600061204a8261213c565b91506120558361213c565b92508261206557612064612254565b5b828204905092915050565b600061207b8261213c565b91506120868361213c565b9250817fffffffffffffffffffffffffffffffffffffffffffffffffffffffffffffffff04831182151516156120bf576120be612225565b5b828202905092915050565b60006120d58261213c565b91506120e08361213c565b9250828210156120f3576120f2612225565b5b828203905092915050565b60006121098261211c565b9050919050565b60008115159050919050565b600073ffffffffffffffffffffffffffffffffffffffff82169050919050565b6000819050919050565b600060ff82169050919050565b600061215e8261213c565b91507fffffffffffffffffffffffffffffffffffffffffffffffffffffffffffffffff82141561219157612190612225565b5b600182019050919050565b60006121a782612146565b915060ff8214156121bb576121ba612225565b5b600182019050919050565b60006121d1826121d8565b9050919050565b60006121e382612283565b9050919050565b6000819050919050565b60006121ff8261213c565b915061220a8361213c565b92508261221a57612219612254565b5b828206905092915050565b7f4e487b7100000000000000000000000000000000000000000000000000000000600052601160045260246000fd5b7f4e487b7100000000000000000000000000000000000000000000000000000000600052601260045260246000fd5b60008160601b9050919050565b612299816120fe565b81146122a457600080fd5b50565b6122b08161213c565b81146122bb57600080fd5b5056fea26469706673582212201cb5d61048082102d059b2d649d1810371d70d2fb184eefba2742bc03400d1b264736f6c63430008000033",
  "linkReferences": {},
  "deployedLinkReferences": {}
}